:04000000DEEF14F02B
:1000080000C01CF001C01BF002C01AF004C019F0B7
:1000180005C018F008C017F009C016F00CC015F09C
:10002800D9CF1FF0DACF20F0E1CF1DF0E2CF1EF0DC
:100038009EA00CD09E90FF0ECF6EEB0ECE6E010EE2
:100048000001B527000EB623B723B823F2A208D0C3
:1000580000019D809E90B56BB66BB76BB86BF29242
:10006800F0A04BD09D909E90F0900101A44BA52B41
:10007800A4C100F0A5C101F0003600900136CC0EF5
:100088000024E16E000E0120E26EB5C0E6FFB6C0A6
:10009800E6FFA4C100F0A5C101F0003600900136CA
:1000A800CC0E0024D96E000E0120DA6EDE5000015D
:1000B800B327DE50B423000E0101A55D02E1640EF2
:1000C800A45D1BE3A46BA56B640E046E000E056EA5
:1000D800B3C000F0B4C001F0EDEC0FF000C0B3F015
:1000E80001C0B4F000C0C6F001C0C7F00001B36B96
:1000F800B46BB56BB66BB76BB86B1CC000F01BC0AC
:1001080001F01AC002F019C004F018C005F017C0B9
:1001180008F016C009F015C00CF01DC0E1FF1EC0A4
:0C012800E2FF1FC0D9FF20C0DAFF110069
:100134000B820BAEA4EF00F003680268016800684C
:080144000A360232FF0E120020
:0E014C00026A016A006A086A036A000E120065
:10015A000B840BAEB8EF00F0010E036E026A016A5F
:0A016A00006A0A360232FF0E12008E
:080174000AAE029E000E12000B
:10017C000CB000EF01F00CA2A6EF01F00E6A000E1D
:10018C00026417EF01F0F00E0214D8A4E2EF00F0B5
:10019C00023A01380F0B02260138F00B016E0038C1
:1001AC000F0B01260038F00B006E08380F0B0026E1
:1001BC000838F00B086E0E84D89002BEFBEF00F0EE
:1001CC0008360036013602360E2A02BEFBEF00F06E
:1001DC0008360036013602360E2A02BEFBEF00F05E
:1001EC0008360036013602360E2A0E5003649CEF98
:1001FC0001F0035E0BBC08AEA1EF01F0D880800EBD
:10020C0008640030000E002201220222D8A0A1EFC7
:10021C0001F0023201320032034AA6EF01F0A1EFE5
:10022C0001F001C002F000C001F008C000F0086A43
:10023C00000E0E8602644EEF01F0F00E0214D8A4EC
:10024C0036EF01F0023A01380F0B02260138F00BA1
:10025C00016E00380F0B01260038F00B006E0E8477
:10026C00D89002BEFBEF00F00036013602360E2AA3
:10027C0002BEFBEF00F00036013602360E2A02BE3B
:10028C00FBEF00F00036013602360E2AFBEF00F0D1
:10029C0001C002F000C001F0006A000E0E960E883C
:1002AC0002647BEF01F0F00E0214D8A466EF01F0AB
:1002BC00023A01380F0B02260138F00B016E0E8446
:1002CC00D89002BEFBEF00F0013602360E2A02BEB9
:1002DC00FBEF00F0013602360E2A02BEFBEF00F0F7
:1002EC00013602360E2AFBEF00F001C002F0016A63
:1002FC00000E0E860264ABEF01F0F00E0214D8A4CF
:10030C008AEF01F0023A0E84D89002BEFBEF00F0A7
:10031C0002360E2A02BEFBEF00F002360E2A02BE97
:10032C00FBEF00F002360E2AFBEF00F0010E0C6E14
:10033C000EDFAEEF01F0020E0C6E16DFAEEF01F029
:10034C00040E0C6EF1DEAEEF01F0080E0C6EF8DE52
:02035C0012008D
:10035E000B800BAEBBEF01F0026A0AAEFF0E026E0F
:0C036E00016E006E0A360232FF0E120013
:10037A00025006180E6E086A096A0B6A035007646F
:10038A00B0EF02F006500A6E068E028E03500B6E14
:10039A000750036E000E0B6400EF02F00B50075E6D
:1003AA00D8B4A1EF02F0070E07646FEF02F0075E00
:1003BA0000C008F001C000F002C001F0026A074E56
:1003CA00A1EF02F0076444EF02F0075E00C008F0F4
:1003DA0001C000F0016A074EA1EF02F0076422EFA4
:1003EA0002F0075E00C008F0006A074EA1EF02F0B3
:1003FA00076409EF02F00AC002F005C001F004C068
:10040A0000F0086ACAEF03F0030E076414EF02F063
:10041A00075E08380F0B086E074EA1EF02F0D8905E
:10042A000832074EA1EF02F0D8900832074EA1EF2A
:10043A0002F0D8900832A1EF02F0030E076433EFFE
:10044A0002F0075E08380F0B086E0038F00B08261A
:10045A0000380F0B006E074EA1EF02F0D890003261
:10046A000832074EA1EF02F0D89000320832074E48
:10047A00A1EF02F0D89000320832A1EF02F0030E89
:10048A0007645BEF02F0075E08380F0B086E00384E
:10049A00F00B082600380F0B006E0138F00B00260F
:1004AA0001380F0B016E074EA1EF02F0D89001320E
:1004BA0000320832074EA1EF02F0D8900132003222
:1004CA000832074EA1EF02F0D8900132003208320A
:1004DA00A1EF02F0030E07648CEF02F0075E083802
:1004EA000F0B086E0038F00B082600380F0B006E51
:1004FA000138F00B002601380F0B016E0238F00BA1
:10050A00012602380F0B026E074EA1EF02F0D890B7
:10051A000232013200320832074EA1EF02F0D890BF
:10052A000232013200320832074EA1EF02F0D890AF
:10053A000232013200320832096A000E0EAE95EF1D
:10054A0003F0081E001E011E021E082A00220122B4
:10055A00022295EF03F00750D8A4B6EF02F0CAEFD3
:10056A0003F0096A02C00AF0028E068E0750035C85
:10057A00076ED8B488EF03F0070E076456EF03F04E
:10058A00075E0450096E0550046E0650056E066A31
:10059A00074E88EF03F0070E07642BEF03F0075EA0
:1005AA000450096E0550046E056A074E88EF03F081
:1005BA00070E076409EF03F0075E0450096E046A28
:1005CA00074E88EF03F0070E0764F0EF02F00AC047
:1005DA0002F0CAEF03F0030E0764FBEF02F0075EB6
:1005EA0009380F0B096E074E88EF03F0D8900932CD
:1005FA00074E88EF03F0D8900932074E88EF03F0D0
:10060A00D890093288EF03F0030E07641AEF03F05B
:10061A00075E09380F0B096E0438F00B09260438F7
:10062A000F0B046E074E88EF03F0D890043209329C
:10063A00074E88EF03F0D89004320932074E88EF4C
:10064A0003F0D8900432093288EF03F0030E0764EE
:10065A0042EF03F0075E09380F0B096E0438F00BFE
:10066A00092604380F0B046E0538F00B04260538EA
:10067A000F0B056E074E88EF03F0D890053204324F
:10068A000932074E88EF03F0D89005320432093256
:10069A00074E88EF03F0D89005320432093288EF0A
:1006AA0003F0030E076473EF03F0075E09380F0BBC
:1006BA00096E0438F00B092604380F0B046E05384E
:1006CA00F00B042605380F0B056E0638F00B0526CD
:1006DA0006380F0B066E074E88EF03F0D8900632E5
:1006EA00053204320932074E88EF03F0D8900632F9
:1006FA00053204320932074E88EF03F0D8900632E9
:10070A00053204320932086A000E0EAE95EF03F084
:10071A00091E041E051E061E092A04220522062297
:10072A0009500826045000220550012206500222D0
:10073A000EBEACEF03F0D8A0BBEF03F002320132D9
:10074A0000320832033EBBEF03F0C5EF03F0D8B026
:10075A00C0EF03F0000E081E001E011E021E082A2A
:10076A000022012202220A7EC0EF03F0010E0C6E63
:10077A0000DDCCEF03F0020E0C6EFBDCCCEF03F0D5
:10078A00040E0C6ED2DCCCEF03F0000E0C6E1200DD
:10079A00086A096A000E0762036452EF04F0025005
:1007AA0006180A6E075003267E0ED8A0E3EF03F060
:1007BA00035ED8B056EF04F0E7EF03F0035ED8A06B
:1007CA005AEF04F0028E068E02C00EF001C00BF042
:1007DA0000C00DF000500402F4CF0CF001500502E5
:1007EA00F4CF00F0F3CF08F00402F3500C26F450D3
:1007FA000822000E00220D500502F3500C26F45078
:10080A000822000E002202500402F3500826F45077
:10081A00002202500502016A000E0122F35000264E
:10082A00F45001220D500602F3500826F45000221B
:10083A00026A000E012202220B500602F350002621
:10084A00F4500122000E02220E500602F350012635
:10085A00F450022202BE3AEF04F00836003601369E
:10086A0002360306D8B45AEF04F04DEF04F0D880EC
:10087A00800E08640030000E002201220222D8A055
:10088A004DEF04F0023201320032034A56EF04F00F
:10089A000AAE029E000E5CEF04F0010E52DC5CEF21
:1008AA0004F0020E42DC5CEF04F0040E51DC12008C
:1008BA000B6A0C6A086A0350D8B4E1EF04F002C06C
:1008CA000AF0028E9E0E035E03AED1EF04F0036CB3
:1008DA00080E035CD8A09EEF04F0036E083600C031
:1008EA0008F001C000F002C001F0026A080E035CC1
:1008FA00D8A09EEF04F0036E083600C008F001C0CD
:10090A0000F0016A080E035CD8A09EEF04F0036EA3
:10091A00083600C008F0006A080E035CD8A09EEFF3
:10092A0004F0036E0836086A0350D8A4D890AAEFD8
:10093A0004F00350D8B4AAEF04F0D890023201327E
:10094A0000320832032EA2EF04F00BBC08A0BBEF62
:10095A0004F0D8A0BBEF04F0082AD8B4002AD8B40F
:10096A00012AD8B4022A02BEE5EF04F00AAEE1EF8A
:10097A0004F0021E011E001E081E082AD8B4002A0E
:10098A00D8B4012AD8B4022AE1EF04F0026A016A53
:10099A00006A086AE1EF04F00B800BAEEBEF04F09B
:1009AA00026A0AAEEBEF04F0026E016E006E086E88
:1009BA000A360232EBEF04F00C6A000EECEF04F098
:1009CA00010E0C6E000EC6DCECEF04F0FF0E0250B6
:1009DA00036E0150026E0050016E0850006E120044
:1009EA000A6A0350D8A40A800750D8A40A820A5077
:1009FA00D8B458EF05F0030AD8B411EF05F00AB0DD
:100A0A000CEF05F006AE56EF05F054EF05F002AE16
:100A1A0054EF05F056EF05F00250800B0A6E029E65
:100A2A000650800B069E0A18D8B422EF05F00A5029
:100A3A00D8B454EF05F056EF05F00750035CD8B46C
:100A4A002CEF05F0D8A048EF05F04EEF05F0065060
:100A5A00025CD8B436EF05F0D8A048EF05F04EEFA7
:100A6A0005F00550015CD8B440EF05F0D8A048EF76
:100A7A0005F04EEF05F00450005CD8B458EF05F0CD
:100A8A00D8B04EEF05F00A52D8B456EF05F054EF3D
:100A9A0005F00A52D8B454EF05F056EF05F0D880A5
:0E0AAA001200D8901200D880D88412001200DA
:060AB80000000000120026
:100ABE000050086E0150006E0250016E0350026E1F
:100ACE00036A0B6A0C6A9E0E036E0A6A02AE7CEF14
:100ADE0005F0081E001E011E021E082AD8B4002AA8
:100AEE00D8B4012AD8B4022A0A8E020E0C6EBEECBD
:040AFE0000F01200F2
:0A0B0200210E0D6E0D2EFED712001D
:060B0C00067E35DC12003C
:080B12000B6A0B86FF0E1200B6
:100B1A000F0E0C6E470E0D6E0D2EFED70C2EFCD747
:060B2A00000000001200B3
:100B30000450000A12E10550000A0FE10650000AB5
:100B40000CE10750000A09E1FF0E006EFF0E016E76
:100B50007F0E026EFF0E036EA7D0086A096A075067
:100B6000D8B443EF06F00350D8B447EF06F0025074
:100B700006180A6E028E068E0E6A02C008F001C0C8
:100B80000CF000C00DF004500D5E0550D8A0053CDF
:100B90000C5E0650D8A0063C085E086A0C6A0D6A16
:100BA000D8A0DAEF05F0D8900232013200320832D4
:100BB000010E0E6E0750035ED8A0E7EF05F07E0E23
:100BC0000E240326D8B04CEF06F0EDEF05F07E0EB4
:100BD0000E240326D8A051EF06F0180E0B6E0D362A
:100BE0000C3608360036013602360E360450005EEA
:100BF0000550D8A0053C015E0650D8A0063C025E18
:100C000006340E120EA008EF06F00D8013EF06F06A
:100C1000045000260550D8B0053C01260650D8B037
:100C2000062802260D900B2EEFEF05F039EF06F0A7
:100C3000D8900036013602360E360450005E05505C
:100C4000D8A0053C015E0650D8A0063C025E0634E2
:100C50000E10010B0D26D8B00C2AD8B4082AD8A43F
:100C600039EF06F008320C320D32032AD8B44CEFBB
:100C700006F00AAE089E0850026E0C50016E0D5030
:100C8000006E54EF06F0010E44DF54EF06F0020E42
:100C9000A6EC00F054EF06F0040E9AEC00F054EFCE
:0A0CA00006F0080EADEC00F01200A3
:100CAA000101C5BF02D08A9401D08A84C5BD02D091
:100CBA008A9601D08A86C5BB02D08A9801D08A88D2
:100CCA00C5B902D08A9A01D08A8AA6B102D08A8E80
:100CDA0001D08A9E8A8CEBDE8A9CC5B702D08A94A0
:100CEA0001D08A84C5B502D08A9601D08A86C5B356
:100CFA0002D08A9801D08A88C5B102D08A9A01D0D6
:100D0A008A8AA6B102D08A8E01D08A9E8A8CCFDEC8
:0E0D1A008A9CA6A102D0FCDE01D0EEDE120003
:100D2800C8C100F0016A026A036AFF0E0016000ECD
:100D3800011600C0CDF101C0CEF17F0E005C026E3D
:100D4800000E0158036E02C0CDF103C0CEF1800E33
:100D58000318006E800E005C02E1000E025C21E2C6
:100D6800046A056A066A076AC5C100F0C6C101F0CF
:100D7800C7C102F0C8C103F034DE010ED8B0000EBE
:100D8800006E005209E0000E006E000E016E800E2B
:100D9800026E7F0E036E5AD0006A016A026A036A05
:100DA80055D0000E006E0101CE51005C02E1CD511C
:100DB800180809E2C5C100F0C6C101F0C7C102F0B8
:100DC800C8C103F043D0C5C100F0C6C101F0C7C116
:100DD80002F0C8C103F06DDD6EDE00C0C9F101C0CC
:100DE800CAF102C0CBF103C0CCF100C004F001C0CD
:100DF80005F002C006F003C007F0C5C100F0C6C187
:100E080001F0C7C102F0C8C103F0EBDD010ED8B094
:100E1800000E006E005212E0000E046E000E056E09
:100E2800000E066E7F0E076EC9C100F0CAC101F040
:100E3800CBC102F0CCC103F065DE08D0C9C100F017
:0E0E4800CAC101F0CBC102F0CCC103F0120010
:100E5600CCC100F0CDC101F0000E0101CDBFFF0EE7
:100E6600026E036E003600900136023603360036F7
:100E76000090013602360336C9510024F66ECA5177
:100E86000120F76ECB510220F86E0900F5CFCEF1A6
:100E96000900F5CFCFF10900F5CFD0F10900F5CF64
:100EA600D1F1CC51CD1148E0C5C100F0C6C101F069
:100EB600C7C102F0C8C103F0CEC104F0CFC105F02E
:100EC600D0C106F0D1C107F065DC010ECC5F000E83
:100ED600CD5BCCC104F0CDC105F0000ECDBFFF0E39
:100EE600066E076E04360490053606360736043657
:100EF6000490053606360736C9510424F66ECA51E3
:100F06000520F76ECB510620F86E0900F5CF04F0E8
:100F16000900F5CF05F00900F5CF06F00900F5CF79
:100F260007F0BDEC01F000C0CEF101C0CFF102C068
:100F3600D0F103C0D1F1B5D7CEC100F0CFC101F0D9
:0A0F4600D0C102F0D1C103F0120087
:100F500003500718D8A4BCEF07F002500618D8A415
:100F6000BCEF07F001500518D8A4BCEF07F0005003
:0E0F70000418D8B4D8841200D89412001200CD
:100F7E00BC0E046E010E056E030E0424E96E000E07
:100F8E000520EA6E7E0EEE5C006E016A000E015ABE
:100F9E00C0C1E1FFC1C1E2FF00C0E6FF01C0E6FF34
:100FAE00030E0424E16E000E0520E26E7E0EE66E48
:100FBE00BCC100F0BDC101F0BEC102F0BFC103F063
:020FCE0012000F
:100FD000BC0E0101C26F010EC36F030EC225D96E94
:100FE000000EC321DA6EDE50C025016E000EC12155
:100FF000026E01C0C0F102C0C1F1800E0218006E85
:10100000800E005C02E1000E015C05E2006A016AEC
:10101000026A036A3ED0800E006E800EC119005C29
:1010200002E1C051FF0825E2046A056A066A076A00
:10103000BCC100F0BDC101F0BEC102F0BFC103F0F0
:10104000D4DC010ED8B0000E006E005209E0FF0E95
:10105000006EFF0E016EFF0E026EFF0E036E19D0C2
:10106000FF0E006EFF0E016E7F0E026EFF0E036E0E
:1010700010D0030EC225E16E000EC321E26EC0C186
:10108000E6FFBCC100F0BDC101F0BEC102F0BFC1AE
:0410900003F0120057
:101094000101C46B046A056A066A076ABCC100F0F0
:1010A400BDC101F0BEC102F0BFC103F09CDC010E62
:1010B400D8B0000E006E005203E0BE7F010EC46F74
:1010C400BCC100F0BDC101F0BEC102F0BFC103F05C
:1010D400830E046EF90E056E220E066E7C0E076EEC
:1010E400CDEC03F000C0BCF101C0BDF102C0BEF103
:1010F40003C0BFF100C0C5F101C0C6F102C0C7F111
:1011040003C0C8F10FDE00C004F001C005F002C046
:1011140006F003C007F0BCC100F0BDC101F0BEC1C0
:1011240002F0BFC103F0F0DC000E046E000E056E89
:10113400000E066E810E076ECDEC03F000C0BCF10C
:1011440001C0BDF102C0BEF103C0BFF100C004F094
:1011540001C005F002C006F003C007F0000E006EE7
:10116400000E016E000E026E800E036E3CDC010E5A
:10117400D8B0000E006E00521FE0000E046E000E88
:10118400056E000E066E800E076EBCC100F0BDC178
:1011940001F0BEC102F0BFC103F0B6DC00C0BCF177
:1011A40001C0BDF102C0BEF103C0BFF10101C453CF
:1011B400010ED8A4000EC46FBCC104F0BDC105F07B
:1011C400BEC106F0BFC107F0000E006E000E016E36
:1011D400000E026E7F0E036E06DC010ED8B0000E08
:1011E400006E005219E0BCC104F0BDC105F0BEC1DF
:1011F40006F0BFC107F0000E006E000E016E000E77
:10120400026E800E036E80DC00C0BCF101C0BDF133
:1012140002C0BEF103C0BFF10101BCC100F0BDC1F9
:1012240001F0BEC102F0BFC103F0BCC104F0BDC1F6
:1012340005F0BEC106F0BFC107F0CDEC03F000C05D
:10124400C0F101C0C1F102C0C2F103C0C3F100C0CA
:10125400C5F101C0C6F102C0C7F103C0C8F1390E1F
:10126400C96F2B0ECA6F000ECB6F040ECC6F000E2D
:10127400CD6FEFDDBCC104F0BDC105F0BEC106F009
:10128400BFC107F0CDEC03F000C0BCF101C0BDF15B
:1012940002C0BEF103C0BFF1C0C1C5F1C1C1C6F1F6
:1012A400C2C1C7F1C3C1C8F14D0EC96F2B0ECA6FBD
:1012B400000ECB6F030ECC6F000ECD6FCADD00C0E5
:1012C40004F001C005F002C006F003C007F0BCC181
:1012D40000F0BDC101F0BEC102F0BFC103F026DCC5
:1012E40000C0BCF101C0BDF102C0BEF103C0BFF13A
:1012F4000101C4530DE0000EBC19006E000EBD19AF
:10130400016E800EBE19026E000EBF19036E08D066
:10131400BCC100F0BDC101F0BEC102F0BFC103F009
:021324001200B5
:0C1326000E0E0D6E0D2EFED70000120002
:101332000450085E0550D8A0053C095E0650D8A0AE
:10134200063C0A5E0750D8A0073C0B5E0336070E28
:101352000C6E0334083609360A360B36045003A0E5
:101362000ED0085E0550D8A0053C095E0650D8A0F4
:10137200063C0A5E0750D8A0073C0B5E0DD008263B
:101382000550D8B0053C09260650D8B0063C0A26BE
:101392000750D8B0073C0B2603360C2EDAD702349E
:1013A200083609360A360B36045003A00ED0085E02
:1013B2000550D8A0053C095E0650D8A0063C0A5E3E
:1013C2000750D8A0073C0B5E0DD008260550D8B0B8
:1013D200053C09260650D8B0063C0A260750D8B06C
:1013E200073C0B260236070E0C6E0234083609360D
:1013F2000A360B36045002A00ED0085E0550D8A063
:10140200053C095E0650D8A0063C0A5E0750D8A0EB
:10141200073C0B5E0DD008260550D8B0053C0926C6
:101422000650D8B0063C0A260750D8B0073C0B2617
:1014320002360C2EDAD70134083609360A360B3654
:10144200045002A00ED0085E0550D8A0053C095EEB
:101452000650D8A0063C0A5E0750D8A0073C0B5E97
:101462000DD008260550D8B0053C09260650D8B044
:10147200063C0A260750D8B0073C0B260136070E59
:101482000C6E0134083609360A360B36045001A0B8
:101492000ED0085E0550D8A0053C095E0650D8A0C3
:1014A200063C0A5E0750D8A0073C0B5E0DD008260A
:1014B2000550D8B0053C09260650D8B0063C0A268D
:1014C2000750D8B0073C0B2601360C2EDAD7003471
:1014D200083609360A360B36045001A00ED0085ED3
:1014E2000550D8A0053C095E0650D8A0063C0A5E0D
:1014F2000750D8A0073C0B5E0DD008260550D8B087
:10150200053C09260650D8B0063C0A260750D8B03A
:10151200073C0B260036070E0C6E003408360936DF
:101522000A360B36045000A00ED0085E0550D8A033
:10153200053C095E0650D8A0063C0A5E0750D8A0BA
:10154200073C0B5E0DD008260550D8B0053C092695
:101552000650D8B0063C0A260750D8B0073C0B26E6
:1015620000360C2EDAD700B00ED0045008260550F3
:10157200D8B0053C09260650D8B0063C0A260750CA
:08158200D8B0073C0B26120053
:10158A000B1E0A1E091E081E082AD8B4092AD8B436
:08159A000A2AD8B40B2A120042
:1015A2000C6A0E6A0250D8A4EAEF0AF001C002F0F7
:1015B20000C001F0006A0E860250D8A4EAEF0AF0D9
:1015C20001C002F0016A0E960E880250D8B4FCEFF8
:1015D2000AF00E50035ED8A4D8A002EF0BF0D89008
:1015E20002BE08EF0BF0003601360236032EF1EF91
:1015F2000AF002EF0BF0010E0C6EA6EC00F00CEFFD
:101602000BF0020E0C6EADEC00F00CEF0BF0040EC2
:081612000C6EBAEC00F01200AE
:10161A000101A691BCC1C5F155EC06F0A6811200E4
:10162A00800E0101AE19006E800E005C02E1000E10
:10163A00AD5D08E2AD510008006EAEC101F0000ECA
:0E164A00015604D0ADC100F0AEC101F0120097
:101658000450000A12E10550000A0FE10650000A82
:101668000CE10750000A09E1FF0E006EFF0E016E43
:10167800FF0E026E7F0E036E97D00C6A07BE0C2A0F
:101688000D6A0B6A0A6A096A086A03500210011097
:101698000010D8B484D0035007180E6E0EBE0D1E6D
:1016A80007AE0BD0041E051E061E071E042AD8B45A
:1016B800052AD8B4062AD8B4072A03AE0BD0001ED0
:1016C800011E021E031E002AD8B4012AD8B4022A19
:1016D800D8B4032A035007100E6E0EBE1CD025DEA8
:1016E8000CBE36D00DAE5BD0001E011E021E031EBE
:1016F800002AD8B4012AD8B4022AD8B4032A081E6A
:10170800091E0A1E0B1E082AD8B4092AD8B40A2AA8
:10171800D8B40B2A44D007AE15D003BE0DD0035061
:101728000B6E02500A6E0150096E0050086E036A73
:10173800026A016A006AD6D7036A026A016A006A05
:10174800002A000C031E021E011E001E0C8EC7D7A5
:10175800082AD8B4092AD8B40A2AD8B40B2A0450BB
:10176800085CD8A4BFD70550095CD8A4BBD70650DD
:101778000A5CD8A4B7D707500B5CD8A4B3D70B6AB8
:101788000A6A096A086A002AD8B4012AD8B4022A5F
:10179800D8B4032A03AEA6D70E6A0E88FF0C0E6AC9
:0A17A8000CA001D0EEDE000F1200CD
:1017B2000B6A0350D8B41FEF0CF002500A6E028E6F
:1017C2008E0E035E03AE23EF0CF0036C080E035C77
:1017D200D8A0FEEF0BF0036E013602C001F0026AE0
:1017E200080E035CD8A0FEEF0BF0036E0136016A0F
:1017F2000350D8A4D89008EF0CF00350D8B408EFE7
:101802000CF0D89002320132032E02EF0CF00BBC26
:1018120001A015EF0CF0D8A015EF0CF0012AD8B4F6
:10182200022A02BE32EF0CF00AAE38EF0CF0021EB2
:10183200011E012AD8B4022A38EF0CF0026A016AAA
:1018420038EF0CF00B800BAE3CEF0CF0026A0AAEE4
:101852003CEF0CF0FF0E026E016E0A3602323CEFD4
:101862000CF0010E0C6EAFEC01F03EEF0CF0000E2E
:101872000C6E3EEF0CF0FF0E0C6E0150006E02502B
:04188200016E1200E1
:10188600C26A070EC012C08EADC100F000360090CD
:10189600003600900050C212C28042DDC282C2A24F
:1018A60001D0FDD7C4CF01F0006AC3500012000E6C
:0618B6000112C2901200B5
:1018BC000050086E0150006E016A026A036A0B6ADE
:1018CC000C6A960E036E0A6A00C001F008C000F0A4
:0818DC00086A026A60DE1200D6
:1018E400B0C100F0016A026A036AFF0E0016000E1E
:1018F400011600C0B5F101C0B6F17F0E005C026EA6
:10190400000E0158036E02C0B5F103C0B6F1800E9B
:101914000318006E800E005C02E1000E025C22E2FD
:10192400ADC104F0AEC105F0AFC106F0B0C107F01F
:10193400006A016A026A036AF5EC04F0000ED8B08A
:10194400010E006E005205E0006A016A026A036A31
:101954005AD0000E006E000E016E000E026E7F0E55
:10196400036E51D0000E006E0101B651005C02E11D
:10197400B551180809E2ADC100F0AEC101F0AFC124
:1019840002F0B0C103F03FD0ADC100F0AEC101F030
:10199400AFC102F0B0C103F05DEC04F05FEC05F000
:1019A40000C0B1F101C0B2F102C0B3F103C0B4F19F
:1019B400ADC104F0AEC105F0AFC106F0B0C107F08F
:1019C400F5EC04F0010ED8B0000E006E005213E0E6
:1019D400B1C100F0B2C101F0B3C102F0B4C103F06F
:1019E400000E046E000E056E000E066E7F0E076E6E
:1019F400BDEC01F008D0B1C100F0B2C101F0B3C137
:081A040002F0B4C103F012006E
:101A0C0000C008F00150006E016A026A036A0B6A9A
:101A1C000C6A016A026A036A960E036E0A6A00AEC9
:101A2C001EEF0DF0081E001E082AD8B4002A0A8EDC
:101A3C0000C001F008C000F0086A026AACDD1200B8
:101A4C00ADC104F0AEC105F0AFC106F0B0C107F0F6
:101A5C00DB0E006E0F0E016E490E026E800E036ED1
:101A6C00F5EC04F0010ED8B0000E006E00521DE033
:101A7C00E40E046ECB0E056E160E066E810E076E0E
:101A8C00ADC100F0AEC101F0AFC102F0B0C103F0C6
:101A9C0086EC05F000C0BCF101C0BDF102C0BEF186
:101AAC0003C0BFF14AEC08F01CD0ADC100F0AEC1D0
:101ABC0001F0AFC102F0B0C103F0DB0E046E0F0EEB
:101ACC00056E490E066E7F0E076EBDEC01F000C070
:101ADC00BCF101C0BDF102C0BEF103C0BFF14AECC4
:041AEC0008F01200EC
:101AF00029C004F02AC005F02BC006F02CC007F066
:101B0000000E006E000E016E200E026E830E036E3C
:101B1000F5EC04F0010ED8B0000E006E0052D8B4FF
:101B200074D0800E3118006E800E005C08E1000E4B
:101B3000305C05E1030E2F5C02E1D40E2E5C18E34D
:101B4000800E000A006E800E2D18005C02E22D0649
:101B500001D02D6A0B0E0B6E260E0C6E5D0E0D6EF7
:101B60000D2EFED70C2EFCD70B2EFAD7000000004E
:101B7000800E006E800E3118005C08E130500008C5
:101B800005E12F50030802E12E50C00819E3800E32
:101B90002D18006E800E040A005C02E22D2A02D08D
:101BA000040E2D6E0B0E0B6E260E0C6E5D0E0D6E62
:101BB0000D2EFED70C2EFCD70B2EFAD700000000FE
:101BC0002D50040A05E18C8E8C8C8C848C861CD064
:101BD0002D50030A05E18C8E8C8C8C848C9614D04D
:101BE0002D50020A05E18C968C948C8C8C8E0CD036
:101BF0002D50010A05E18C968C948C9C8C8E04D01F
:101C00008C9E8C9C8C948C9604D08C9E8C9C8C94FA
:041C10008C9612009C
:101C1400ADC104F0AEC105F0AFC106F0B0C107F02C
:101C2400006A016A026A036AF5EC04F0000ED8B097
:101C3400010E006E005205E0006A016A026A036A3E
:101C4400F4D0ADC1B1F1AEC1B2F1AFC1B3F1B0C125
:101C5400B4F1000E046E000E056E000E066E7F0ECB
:101C6400076EADC100F0AEC101F0AFC102F0B0C16A
:101C740003F0F5EC04F0010ED8B0000E006E005233
:101C84001AE0B1C104F0B2C105F0B3C106F0B4C1A9
:101C940007F0000E006E000E016E000E026E7F0E45
:101CA400036E98EC05F000C0B1F101C0B2F102C0BE
:101CB400B3F103C0B4F1B1C1BCF1B2C1BDF1B3C160
:101CC400BEF1B4C1BFF1BA0E0101C06F010EC16F04
:101CD400BFEC07F000C0B1F101C0B2F102C0B3F132
:101CE40003C0B4F100C0BCF101C0BDF102C0BEF13B
:101CF40003C0BFF1BAC1C0F1BBC1C1F1C133C0332C
:101D0400C19FC1BDC18FE8EC07F000C0B1F101C0B3
:101D1400B2F102C0B3F103C0B4F1000E046E000EC0
:101D2400056E000E066E7F0E076EADC100F0AEC1EB
:101D340001F0AFC102F0B0C103F0F5EC04F0010E04
:101D4400D8B0000E006E00521AE0B1C104F0B2C166
:101D540005F0B3C106F0B4C107F0000E006E000E2A
:101D6400016E000E026E7F0E036E98EC05F000C04B
:101D7400B1F101C0B2F102C0B3F103C0B4F1140E69
:101D84000101B96FB1C104F0B2C105F0B3C106F0ED
:101D9400B4C107F0ADC100F0AEC101F0AFC102F0B3
:101DA400B0C103F098EC05F0B1C104F0B2C105F084
:101DB400B3C106F0B4C107F0BDEC01F0000E046E2F
:101DC400000E056E000E066E800E076E98EC05F090
:101DD40000C0B5F101C0B6F102C0B7F103C0B8F15B
:101DE400B1C104F0B2C105F0B3C106F0B4C107F04B
:101DF400A8EC07F0010ED8A4000E006E005201E01A
:101E04000CD0B5C1B1F1B6C1B2F1B7C1B3F1B8C12B
:101E1400B4F10101B907B953B5E1B1C100F0B2C1E0
:0C1E240001F0B3C102F0B4C103F01200E1
:101E300010D0800E0101AD6F1AD0C00EAD6F17D05B
:101E4000940EAD6F14D0D40EAD6F11D0800EAD6F67
:101E50000ED00101AD51010AECE0AD51020AEDE0F6
:101E6000AD51030AEDE0AD51040AEDE0EFD7AE0548
:101E7000006EAD51002600C0ADF100C0C5F155ECBB
:101E800006F0A691B16BB151AF25E96E000EB021FD
:101E9000EA6EEE520CE0B151AF25E96E000EB021B2
:101EA000EA6EEECFBCF10DEC0BF0B12BECD7A681B6
:021EB00012001E
:101EB200220E0C6E086A096A0A6A0B6A0C06D8B40A
:101EC2001FD0D8900B320A32093208320332023262
:101ED20001320032D8A0F2D70C06D8B409D004508F
:101EE20008260550092206500A2207500B22EAD77B
:101EF200045008260550092206500A2207500B22D8
:021F02001200CB
:101F04000900F5CFE6FF0006FBE10106F9E1120046
:101F1400939C939E939A9398939693948A9C8A9E67
:101F24008A948A968A988A9A8DEC05F08DEC05F04D
:101F34008DEC05F08A888A8A8A8C5CEC05F08A9C90
:101F44008DEC05F08A8C5CEC05F08A9C8DEC05F038
:101F54008A8C5CEC05F08A9C8DEC05F08A9A8A8C5C
:101F64005CEC05F08A9C8DEC05F08A8C5CEC05F049
:101F74008A9C8A988A848A8C5CEC05F08A9C8DEC15
:101F840005F08A948A8A8A8C5CEC05F08A9C8A9A89
:101F94008A8C5CEC05F08A9C8DEC05F08A8C5CECF8
:101FA40005F08A9C8A8A8A8C5CEC05F08A9C8DEC0C
:101FB40005F08A9A8A8C5CEC05F08A9C8A848A866D
:101FC4008A888A8A8A8C5CEC05F08A9C8DEC05F000
:061FD4000101A6811200CC
:101FDA00086A096A100E0C6E013408360936045074
:101FEA00085E0550D8A0053C095ED8B007D0045059
:101FFA0008260550D8B0053C0926D8900036013687
:06200A000C2EEAD71200C3
:102010000101A76BA86BA96BAA6BAB6BAC6B010E34
:10202000C26EAB6BAC6B030EAC5D02E1E80EAB5D58
:1020300014E2AD6B28DC00C0A7F101C0A8F101508B
:102040000101AA5D02E10050A95D04E2A7C1A9F166
:10205000A8C1AAF1AB4BAC2BE6D7A9C100F0AAC12D
:1020600001F02CDC00C0ADF101C0AEF102C0AFF157
:1020700003C0B0F137DCD9EC0BF000C0ADF101C00A
:10208000AEF115EC0BF000C0A9F101C0AAF116DC0D
:102090009A0E046E990E056E190E066E7E0E076E70
:1020A000CDEC03F000C021F001C022F002C023F00B
:1020B00003C024F0D9EC0BF000C09CF101C09DF1ED
:1020C000000E01BEFF0E9E6F9F6F640E046E000E29
:1020D000056E066E076E9CC100F09DC101F09EC1A9
:1020E00002F09FC103F02CEC0BF0300E0024000135
:1020F0007D6F0A0E046E000E056E066E076E9CC1A3
:1021000000F09DC101F09EC102F09FC103F02CECD4
:102110000BF00A0E046E000E056E066E076E2CECB8
:102120000BF008C000F009C001F00AC002F00BC0BB
:1021300003F0300E002400017E6F0A0E046E000EC4
:10214000056E066E076E9CC100F09DC101F09EC138
:1021500002F09FC103F02CEC0BF008C000F009C0A6
:1021600001F00AC002F00BC003F0300E00240001A1
:102170007F6F020E0101AD6F010EAE6F7B0EAF6F70
:10218000000EB06F55DE820E0C6EDD0E0D6E0D2E44
:10219000FED70C2EFCD700000000A96BAA6B120022
:1021A00021C000F022C001F023C002F024C003F0DF
:1021B000D9EC0BF02BDC29C004F02AC005F02BC0B1
:1021C00006F02CC007F0CDEC03F025C004F026C0CB
:1021D00005F027C006F028C007F0CDEC03F0000E94
:1021E000046E000E056E480E066E850E076E98ECA6
:1021F00005F000C0ADF101C0AEF102C0AFF103C007
:10220000B0F172EC0CF0D9EC0BF000C0ADF101C0F4
:10221000AEF115EC0BF000C0C8F001C0C9F0000E23
:1022200001BEFF0E0001CA6FCB6F9CC100F09DC1C3
:1022300001F0000E01019DBFFF0E026E036E98C1FA
:1022400004F099C105F09AC106F09BC107F031DE98
:10225000640E046E000E056E066E076E2CEC0BF01D
:1022600000C0A0F101C0A1F102C0A2F103C0A3F11E
:1022700000C004F001C005F002C006F003C007F082
:1022800018DE00C0A7F101C0A8F102C0A9F103C087
:10229000AAF1C8C000F0C9C001F0CAC002F0CBC0AA
:1022A00003F0C8C004F0C9C005F0CAC006F0CBC036
:1022B00007F0FFDDA7C104F0A8C105F0A9C106F031
:1022C000AAC107F00050045E0150055A0250065A98
:1022D0000350075A04C000F005C001F006C002F028
:1022E00007C003F05FEC05F000C0ADF101C0AEF136
:1022F00002C0AFF103C0B0F18DDCD9EC0BF000C02F
:1023000094F101C095F1000E01BEFF0E0101966F20
:10231000976F640E046E000E056E066E076EC8C0E1
:1023200000F0C9C001F0CAC002F0CBC003F02CEC31
:102330000BF0300E0024346E0A0E046E000E056E93
:10234000066E076EC8C000F0C9C001F0CAC002F036
:10235000CBC003F02CEC0BF00A0E046E000E056EE1
:10236000066E076E2CEC0BF008C000F009C001F0FF
:102370000AC002F00BC003F0300E0024356E0A0EC6
:10238000046E000E056E066E076EC8C000F0C9C070
:1023900001F0CAC002F0CBC003F02CEC0BF008C077
:1023A00000F009C001F00AC002F00BC003F0300ECB
:1023B0000024366E640E046E000E056E066E076E07
:1023C000A0C100F0A1C101F0A2C102F0A3C103F0BD
:1023D0002CEC0BF0300E0024396E0A0E046E000E49
:1023E000056E066E076EA0C100F0A1C101F0A2C18A
:1023F00002F0A3C103F02CEC0BF00A0E046E000EE9
:10240000056E066E076E2CEC0BF008C000F009C0DC
:1024100001F00AC002F00BC003F0300E00243A6E47
:102420000A0E046E000E056E066E076EA0C100F067
:10243000A1C101F0A2C102F0A3C103F02CEC0BF08A
:1024400008C000F009C001F00AC002F00BC003F0A0
:10245000300E00243B6E640E046E000E056E066E98
:10246000076E94C100F095C101F096C102F097C1CA
:1024700003F02CEC0BF0300E00243F6E0A0E046EBD
:10248000000E056E066E076E94C100F095C101F056
:1024900096C102F097C103F02CEC0BF00A0E046E0B
:1024A000000E056E066E076E2CEC0BF008C000F0F7
:1024B00009C001F00AC002F00BC003F0300E002486
:1024C000406E0A0E046E000E056E066E076E94C115
:1024D00000F095C101F096C102F097C103F02CEC19
:1024E0000BF008C000F009C001F00AC002F00BC0F8
:1024F00003F0300E0024416E030E0101AD6F010E9A
:10250000AE6F320EAF6F000EB06F92DC820E0C6EAB
:10251000DD0E0D6E0D2EFED70C2EFCD70000000038
:022520001200A7
:102522000101A76BA86BA96BAA6BAB6BAC6B050E19
:10253200C26EAB6BAC6B800EAC19006E800E030AE0
:10254200005C02E1E80EAB5D16E2010EAD6F43ECFA
:102552000CF000C0A7F101C0A8F101500101AA5D71
:1025620002E10050A95D04E2A7C1A9F1A8C1AAF144
:10257200AB4BAC2BE0D7A9C100F0AAC101F05EECD5
:102582000CF07B0E046E140E056E6E0E066E7D0E42
:10259200076ECDEC03F000C029F001C02AF002C0A2
:1025A2002BF003C02CF0D9EC0BF000C098F101C065
:1025B20099F1000E01BEFF0E9A6F9B6F640E046EBE
:1025C200000E056E066E076E98C100F099C101F00B
:1025D2009AC102F09BC103F02CEC0BF0300E0024E8
:1025E200496E2E0E4A6E0A0E046E000E056E066EBF
:1025F200076E98C100F099C101F09AC102F09BC127
:1026020003F02CEC0BF00A0E046E000E056E066E43
:10261200076E2CEC0BF008C000F009C001F00AC0F4
:1026220002F00BC003F0300E00244B6E0A0E046E53
:10263200000E056E066E076E98C100F099C101F09A
:102642009AC102F09BC103F02CEC0BF008C000F021
:1026520009C001F00AC002F00BC003F0300E0024E2
:102662004C6E020E0101AD6F0A0EAE6F470EAF6FD8
:10267200000EB06F18EC0FF0820E0C6EDD0E0D6EB8
:102682000D2EFED70C2EFCD700000000A96BAA6B02
:02269200120034
:102694000101A46BA56B000EA55D02E1640EA45DAF
:1026A40014E2A4C100F0A5C101F000360090013687
:1026B400CC0E0024E16E000E0120E26EE66AE66AAA
:1026C400A44BA52BA44BA52BE6D7020E0B6E040E30
:1026D4000C6EBA0E0D6E0D2EFED70C2EFCD70B2EE3
:1026E400FAD70000F28EF288F0869D80150E0B6EEC
:1026F4004B0E0C6EBE0E0D6E0D2EFED70C2EFCD79F
:102704000B2EFAD70000C6C000F0C7C001F0003697
:10271400009001365EEC0CF0F90E046E0F0E056E9F
:10272400490E066E800E076ECDEC03F0000E046EAB
:10273400000E056E7A0E066E880E076E98EC05F094
:1027440000C0ADF101C0AEF102C0AFF103C0B0F101
:1027540026EC0DF000C025F001C026F002C027F0E1
:1027640003C028F0000E046E000E056E7A0E066E8D
:10277400880E076ECDEC03F000C0ADF101C0AEF1E0
:1027840002C0AFF103C0B0F172EC0CF0D9EC0BF065
:1027940000C0ADF101C0AEF115EC0BF000C0BEF00D
:1027A40001C0BFF0000E01BEFF0E0001C06FC16F7B
:1027B4000A0EBE25016E000EBF21026E000EC0215E
:1027C400036E000EC121046E800E0418006E800E8C
:1027D4003118005C08E13050035C05E12F50025CC5
:1027E40002E12E50015C07E20A0E2E5E000E2F5A03
:1027F400305A315A2DD0BEC001F0BFC002F0C0C063
:1028040003F0C1C004F00A0E015E000E025A035A1E
:10281400045A800E3118006E800E0418005C08E122
:102824000350305C05E102502F5C02E101502E5C44
:1028340007E20A0E2E26000E2F223022312208D063
:10284400BEC02EF0BFC02FF0C0C030F0C1C031F008
:10285400E80E046E030E056E000E066E076E2EC0A3
:1028640000F02FC001F030C002F031C003F02CECB6
:102874000BF0300E00240001736F2E0E746F640E83
:10288400046E000E056E066E076E2EC000F02FC09B
:1028940001F030C002F031C003F02CEC0BF00A0E52
:1028A400046E000E056E066E076E2CEC0BF008C06D
:1028B40000F009C001F00AC002F00BC003F0300EB2
:1028C40000240001756F0A0E046E000E056E066E7C
:1028D400076E2EC000F02FC001F030C002F031C0EE
:1028E40003F02CEC0BF00A0E046E000E056E066E5F
:1028F400076E2CEC0BF008C000F009C001F00AC010
:1029040002F00BC003F0300E00240001766F25C0E6
:10291400AFF026C0B0F027C0B1F028C0B2F0010E6D
:102924000101AD6F010EAE6F660EAF6F000EB06F9A
:1029340018EC0FF0340E0C6EF10E0D6E0D2EFED74A
:102944000C2EFCD700000000F29EF298F0969D90A9
:1029540083BA18D078EC0DF0040E0101AD6F010EAE
:10296400AE6F9A0EAF6F000EB06F18EC0FF0820EC0
:102974000C6EDD0E0D6E0D2EFED70C2EFCD7000056
:10298400000019D08C9E8C9C8C948C96040EAD6F98
:10299400010EAE6F850EAF6F000EB06F18EC0FF026
:1029A400820E0C6EDD0E0D6E0D2EFED70C2EFCD796
:0829B400000000002D6A120072
:1029BC00AFEC15F092809282946A826A9594959607
:1029CC00959C959E958A83AA836A8AEC0FF0010EDA
:1029DC00C56F55EC06F00C0EC56F55EC06F0010EEC
:1029EC00AD6F010EAE6F530EAF6F000EB06F18ECE3
:1029FC000FF0020EAD6F010EAE6F5C0EAF6F000EDE
:102A0C00B06F18EC0FF0030EAD6F010EAE6FC20E6F
:102A1C00AF6F000EB06F18EC0FF0040EAD6F010E1F
:102A2C00AE6FB90EAF6F000EB06F18EC0FF00A0E50
:102A3C00C16EC06A010ECD6E9E90F80ECF6E2F0E39
:102A4C00CE6EC00EF26EF19CF292F19AF0901F0EC7
:102A5C000B6E710E0C6E1E0E0D6E0D2EFED70C2E07
:102A6C00FCD70B2EFAD70000010EC56F55EC06F003
:102A7C00FF0ED16E040008EC10F04DDD05DED0EC3D
:062A8C0010F0F8D7FFD79F
:102B5E0010EE21F0A70E006E010E016E920EF66EB3
:0E2B6E002A0EF76E000EF86E82EC0FF01200C9
:042A92000000000040
:042A9600000000003C
:042A9A000000000038
:012A9E000037
:042A9F00D40300005C
:102AA300503A3030305720303030564120303030BB
:052AB300564152200015
:0C2AB800493A202E202041202020200040
:092AC4005046492D41544F4D00CC
:0A2ACD005455544F5249414C530038
:102AD700506F77657220466163746F723A302E309B
:052AE70030202020005A
:0A2AEC00563A20202056202020003A
:102AF60020504643204F46462E20202020202020CE
:052B060020202020004A
:102B0B0020504643204F4E202E20202020202020D6
:052B1B00202020200035
:042B200000000000B1
:022B24000000AF
:042B260000000000AB
:052B2A003230313900DA
:042B2F00D4030000CB
:042B330050464900BF
:022B370000009C
:102B3900ECF34A903595958F17C15C8BFDDBED86DB
:042B490072B33380B0
:102B4D002B3401907F9D308BE7FF59850000007F6E
:020000040030CA
:0E000000000C1F1EFF8381FF0FC00FE00F409A
:00000001FF
